:100000000C9442000C946A000C946A000C946A00F0
:100010000C946A000C946A000C946A000C946A00B8
:100020000C946A000C946A000C946A000C946A00A8
:100030000C946A000C9489050C946A000C946A0074
:100040000C946A000C946A000C946A000C946A0088
:100050000C946A000C946A000C946A000C946A0078
:100060000C946A000C946A00CB02D102D402D7022D
:10007000DA02DD02E002E302E602E902EC02EF024C
:100080009A079E0B11241FBECFEFD4E0DEBFCDBF79
:1000900011E0A0E0B1E0E4EBF8E102C005900D92C0
:1000A000A834B107D9F711E0A8E4B1E001C01D926E
:1000B000A33EB107E1F710E0C4E8D0E004C0229706
:1000C000FE010E94540CC038D107C9F70E948B0072
:1000D0000C94580C0C9400000F931F93CF93DF9354
:1000E0008C01C0E0D0E0F801EC0FFD1F8081918110
:1000F00065E670E00E94CA0BFB01E05DFE4F808167
:100100000E94D8062296CA30D10569F7DF91CF91B7
:100110001F910F910895CF92DF92EF92FF920F936C
:100120001F93DF93CF93CDB7DEB72A970FB6F8941E
:10013000DEBF0FBECDBF80ED97E00E94ED071FC070
:100140000E94B6077C010E94C5060027F7FC0095B7
:10015000102FC801B7010E94720780E091E00E9451
:10016000E90661E070E080E090E00E94970783E09C
:1001700091E00E94E90682E390E00E94F00780E1AE
:100180000E94BE058823E1F280E10E94030684EF0D
:1001900091E00E94F0070CEE1FEF0832110528F0E5
:1001A00068ED7FEF88E290E004C068E270E088EDDF
:1001B0009FEF0E94BF010E94C50661E070E080E0F1
:1001C00090E00E94970783E091E00E94E9060E9478
:1001D000C00784E190E00E94F0070F5F1F4F0C33CF
:1001E0001105D9F660E070E080E090E00E94BF0168
:1001F0006E010894C11CD11C21C0D601E6E2F1E0D9
:100200008AE001900D928150E1F7C6010E94B90782
:100210007C010E94C50600E010E0C801B7010E9401
:10022000720761E070E080E090E00E949707C601ED
:100230000E946C0082E390E00E94F00780E10E943F
:10024000BE058823D1F280E10E9403060E94C50604
:100250008BE091E00E94860588E191E00E94E9062A
:100260000E94E5018823E1F78E010F5F1F4FD8013F
:10027000ECE1F1E08AE001900D928150E1F7C801D4
:100280000E94B907805D974028F464E670E080E042
:1002900090E004C060E070E084E690E00E94BF015E
:1002A000E6CF809148018823F1F481E080934801F2
:1002B00083EF8093B0008091B00084BD82E0809392
:1002C000B1008091B10085BD1092B4008091B4005E
:1002D0008093B3008091B30088BD88B587BD8AB193
:1002E00088668AB9239A0895CF93DF93EC010E9420
:1002F0005101D7FD02C020E004C0D095C195DF4F69
:1003000021E0CE01CF3FD10519F014F08FEF90E03E
:10031000222319F018BC87BD02C088BD17BCDF912D
:10032000CF910895CF93DF93EC010E945101D7FD47
:1003300002C020E004C0D095C195DF4F21E0CE017E
:10034000CF3FD10519F014F08FEF90E0222329F070
:100350001092B4008093B30004C08093B400109254
:10036000B300DF91CF9108950F931F938B010E94EB
:100370007401C8010E9492011F910F9108950E947B
:10038000B4010895809149018823F1F421E020937C
:100390004901229883E28093800089E18093810063
:1003A0001092820080E29EE49093890080938800FE
:1003B00010928B0010928A00109285001092840097
:1003C0008FEF86BB20936F00089580913A0190E0F3
:1003D000882309F491E0892F0895A0E0B0E0E3EFCD
:1003E000F1E00C94230C8C015B01C42E0E94C2012D
:1003F00010923A0117FD03C0DD24D39403C01F7788
:100400009AE0D92E80918100E82EFF2448EFE42263
:10041000FF242D2D30E080E991E0AC01249FC00144
:10042000259F900D349F900D112480179107B0F4F3
:10043000E80157E20131150710F0C0E1D7E29E0153
:1004400040E050E060E07DE281E391E00E94DE0B5D
:10045000890181E090E0E82AF92A20C088E2D89E4C
:10046000802D1124C82FD0E0C017D10708F4E8016F
:100470009E0140E050E09AE0D91629F460E478E764
:100480008DE791E004C060EA75E286E290E00E94A8
:10049000DE0B890142E050E0E42AF52A5AE0D51645
:1004A00039F4CE0105966AE070E00E94CA0BEB01B8
:1004B00083E0C83ED80711F4B5010FC0BE0180E04B
:1004C00090E0950140E050E00E949F0B28EE33E061
:1004D00040E050E00E94000CB901CC2011F42298B9
:1004E00006C0229A9FE09C1510F48FE0C82E10924F
:1004F0006F00E09281001093890000938800809142
:1005000088009091890020E130E02C19310902C067
:10051000969587952A95E2F790938B0080938A00B1
:10052000709356016093550181E080936F00789439
:10053000CDB7DEB7EAE00C943F0CCF93DF93EB012D
:100540008F3F11F0442329F440E0BE0188EE93E090
:1005500067C0813110F420E005C0282F20512036DB
:1005600008F02FE5822F6CE00E94BE0B382F682F19
:1005700070E084EF9FEF689FF001699FF00D789F16
:10058000F00D1124E20FF11DEC30F10538F4EC5CB4
:10059000FF4F0C94520C8CE991E023C080E090E076
:1005A00020C085EB91E01DC08FEC91E01AC08AEE6F
:1005B00091E017C087E092E014C086E292E011C09B
:1005C00087E492E00EC089E692E00BC08EE892E0EC
:1005D00008C085EB92E005C08EED92E002C08AE093
:1005E00093E0373071F002C0880F991F6A95E2F7E7
:1005F000323020F005966AE070E00BC080509048E1
:100600000BC026E0880F991F2A95E1F7029665E056
:1006100070E00E94CA0BCB01403108F04FE0BE01F0
:100620000E94ED01DF91CF910895409151015091C9
:100630005201E0914D01F0914E0160E070E012C076
:10064000CB01B3E0880F991FBA95E1F7660F771FCA
:10065000860F971F622F772767FD70956053704054
:10066000680F791F9E2F3F2F2191822F80538A3050
:1006700038F390934D0130934E01CA010E94CA0B8A
:10068000CB010895EF92FF920F931F93CF93DF93C7
:10069000F0904A0110914B01112321F060914C011F
:1006A000662361F400914C0120914F01309150017B
:1006B000C0915301D0915401EF2C08C040E070E08C
:1006C00084E10E949D0210924C01F2C1E0914D0123
:1006D000F0914E019081892F81548A3108F4905E07
:1006E0003196963609F4A3C09736D4F4923609F4BD
:1006F0004EC0933674F49E33F1F19F3334F490324C
:1007000049F39C3309F05DC13CC0913609F059C1F1
:100710006BC1943609F463C095360CF074C04BC0BD
:100720009F3611F1903754F49C3609F4A8C09D36D9
:1007300009F4ADC0973609F044C18DC0943769F013
:10074000963721F0923709F03CC1D4C0F0934E01A6
:10075000E0934D01C0E0D0E028C1F0934E01E0935A
:100760004D0160E070E0EDC0F0934E01E0934D016B
:1007700040E050E0B1C0F0934E01E0934D01E394AE
:10078000A5CFF0934E01E0934D01EA949FCF0093E3
:100790004C0110934B013093500120934F01F09284
:1007A0004A01D0935401C0935301F0934E01E0935A
:1007B0004D012BE02CC100934C0110934B01309361
:1007C000500120934F01F0924A01D0935401C093FD
:1007D0005301F0934E01E0934D0120E018C10093C6
:1007E0004C0110934B013093500120934F01F09234
:1007F0004A01D0935401C0935301F0934E01E0930A
:100800004D0122E004C100934C0110934B01309341
:10081000500120934F01F0924A01D0935401C093AC
:100820005301F0934E01E0934D0124E0F0C000939A
:100830004C0110934B013093500120934F01F092E3
:100840004A01D0935401C0935301F0934E01E093B9
:100850004D0125E0DCC000934C0110934B01309317
:10086000500120934F01F0924A01D0935401C0935C
:100870005301F0934E01E0934D0127E0C8C0F0937F
:100880004E01E0934D010E9415039C011FCFF09390
:100890004E01E0934D0180818C3629F08C3419F0A3
:1008A00000E011E001C010E03196F0934E01E093BA
:1008B0004D010CCFCA01A3E0880F991FAA95E1F75B
:1008C000440F551F840F951F462F552747FD509500
:1008D00040535040480F591F9E2F7F2F6191862F04
:1008E00080538A3038F390934D0170934E01F42E6B
:1008F000E42EECCE00934C0110934B013093500149
:1009000020934F01F0924A01D0935401C0935301B8
:10091000F0934E01E0934D0120E011E079C0CB014E
:1009200033E0880F991F3A95E1F7660F771F860F1E
:10093000971F622F772767FD709560537040680F8F
:10094000791F9E2F3F2F2191822F80538A3038F3B9
:1009500090934D0130934E0180EC9DE50E94CA0BAF
:10096000CB019B01A3E0220F331FAA95E1F7880F6B
:10097000991F280F391F309352012093510136954A
:10098000279536952795A2CECE0173E0880F991F43
:100990007A95E1F7CC0FDD1F8C0F9D1FC42FDD274B
:1009A000C7FDD095E097C80FD91F9E2F5F2F4191AB
:1009B000842F80538A3040F390934D0150934E0121
:1009C00085CE00934C0110934B013093500120933E
:1009D0004F01F0924A01D0935401C09353011092F9
:1009E0004E0110924D0164C000934C0110934B01D5
:1009F0003093500120934F01F0924A01D09354015B
:100A0000C0935301F0934E01E0934D0129E010E0B3
:100A10008CE0E89EC0011124022F080FE0914D01E7
:100A2000F0914E0102C00F5F319680818B32D9F375
:100A30008332C9F301C001509E2F2F2F81918D3237
:100A4000D1F390934D0120934E0160914F0170912D
:100A500050018153883018F40E941503BC019B019A
:100A600036952795E0914D01F0914E0104C0620F3B
:100A7000731F369527959E2F4F2F81918E32B9F394
:100A800090934D0140934E0180914B01882339F0A2
:100A9000CB019695879580934C01681B71091123B2
:100AA00011F040E002C040915301802F0E949D024E
:100AB000CDB7DEB7E6E00C94430C0F931F930FE61F
:100AC00010E0F801108224E020934A0120ED37E085
:100AD000309352012093510124EF31E030935001C3
:100AE00020934F012FE030E03093540120935301C5
:100AF00010924B0190934E0180934D010E9442034E
:100B000081E0F80180831F910F9108950E945D0597
:100B100008951F920F920FB60F9211248F939F93F7
:100B200080915501909156010197909356018093C1
:100B300055010196E1F480918100887F8160809366
:100B4000810080E29EE49093890080938800109257
:100B50008B0010928A00229881E080933A01809164
:100B60004D0190914E01892B11F00E9442039F91FB
:100B70008F910F900FBE0F901F901895282F809186
:100B80005701882361F481E08093570184B18D7C03
:100B900084B985B1826385B986E08A95F1F783B11E
:100BA00040E030E090E08095909528233923232B76
:100BB00009F041E0842F0895682F80915701882320
:100BC00061F481E08093570184B18D7C84B985B153
:100BD000826385B986E08A95F1F7262F30E040E5FB
:100BE00053EC83B190E082239323892BD1F3CA0184
:100BF0000197F1F783B190E082239323892B89F346
:100C000083B1862308950E94DC0508953AB1579870
:100C10005A98289A26E05C9A822F8A95F1F789B132
:100C20005C98922F9A95F1F75C9A922F9A95F1F72A
:100C30005C9887FDF0CF3AB9089565B190E0AC01BA
:100C400041705070440F551F9C012670307053E066
:100C5000220F331F5A95E1F7422B6D7C462B45B985
:100C60002BB18870907034E0880F991F3A95E1F7A6
:100C70002F77282B2BB95C9A86E0982F9A95F1F75D
:100C80005C988A95F1F70895CF92DF92EF92FF92E8
:100C90000F931F93082F162F0E94B6060E94060678
:100CA000C4B0D5B0EAB0FBB05A9828988BB1110FF8
:100CB000110F812B8BB984B1826384B9579A802F2D
:100CC00082958F700E941D06802F8F700E941D06D6
:100CD000FBB8EAB8D5B8C4B81F910F91FF90EF9058
:100CE000DF90CF9008950F931F938AB184618AB9E2
:100CF000209A80E593ECFC013197F1F70197F1F729
:100D000060E080E30E94440688EA91E60197F1F7EB
:100D100060E080E30E94440608E813E1C8010197FF
:100D2000F1F760E080E30E944406C8010197F1F703
:100D300060E080E20E944406C8010197F1F760E09C
:100D400088E20E94440660E088E00E94440660E079
:100D500081E00E94440660E086E00E94440660E074
:100D60008CE00E9444061F910F91089580915A01D2
:100D7000882329F481E080935A010E947306089524
:100D800060E081E00E94440608950E94C006EBE303
:100D9000F1E080E2819391E0E334F907D9F7109212
:100DA000590110925801089561E00E944406089587
:100DB0000E94D4060895CF93DF93EC0104C02196DE
:100DC00061E00E94440688818823C9F7DF91CF91B2
:100DD00008950E94DB0608954F925F926F927F9272
:100DE0008F929F92AF92BF92CF92DF92EF92FF923B
:100DF0000F93DF93CF93CDB7DEB72A970FB6F89452
:100E0000DEBF0FBECDBF4B015C010AE02E0108948E
:100E1000411C511CC501B4012AE030E040E050E023
:100E20000E94DE0B69017A0101503201600E711CD3
:100E3000C701B6012AE030E040E050E00E949F0B7D
:100E4000861A970AA80AB90A882D805DF301808363
:100E5000C114D104E104F10461F046015701DACF75
:100E6000F701E00FF11D61E080810E9444060F5FF1
:100E700004C07E010894E11CF11C0A3088F32A9614
:100E80000FB6F894DEBF0FBECDBFCF91DF910F91AB
:100E9000FF90EF90DF90CF90BF90AF909F908F909A
:100EA0007F906F905F904F900895EF92FF920F9315
:100EB0001F937B018C0197FF0CC010950095F09457
:100EC000E094E11CF11C011D111D61E08DE20E9406
:100ED0004406C801B7010E94EC061F910F91FF90D4
:100EE000EF9008950E9455070895A2E0B0E0EBE767
:100EF000F7E00C942B0C282F80E8898380EC8A8300
:100F000080E090E0662311F081E090E0FE013196F0
:100F1000E80FF91F922F283008F097E0808160E0F9
:100F2000890F0E9444062296E2E00C94470C0E942E
:100F3000750708958BE591E00E94560808956AE0D0
:100F400070E086E00E94FE07A0E0B0E0BC01CD01A9
:100F50002CE43DE140E050E00E949F0B2FEF33E096
:100F600040E050E00E94000CC90108950E949F07D4
:100F7000089540E0BC018BE591E00E94080B0895C4
:100F80008BE591E00E94820A08950F93DF93CF933F
:100F900000D000D00F92CDB7DEB79C01DE011196D4
:100FA000E3E4F1E045E001900D924150E1F703E107
:100FB00045E0BE016F5F7F4F8BE591E00E945708CF
:100FC0008BE591E00E946A0A0F900F900F900F90AE
:100FD0000F90CF91DF910F9108950E94C50708955A
:100FE00020E030E048E853E105C0FA013197F1F71D
:100FF0002F5F3F4F28173907C0F30895EF92FF92F4
:101000000F931F9397E890937A0090917C00907FC4
:1010100090937C0090917C008F70892B80937C0052
:1010200080917A00806480937A00FB01EE24FF2493
:10103000870180917A00806480937A0080917A00A1
:1010400086FDFCCF80917C0085FF2BC080917900CC
:1010500090E0A0E0B0E0E80EF91E0A1F1B1F3197D8
:1010600041F7CB01969587956034710538F48E0D64
:101070009F1D70E00E94CA0B9B010DC0A0E0B0E074
:10108000E80EF91E0A1F1B1F9B0140E050E0C8013B
:10109000B7010E94DE0BC9011F910F91FF90EF90E5
:1010A00008958091780090917900D3CF08952F9280
:1010B0003F924F925F926F927F928F929F92AF92E8
:1010C000BF92CF92DF92EF92FF920F93CF93DF9375
:1010D000EC015B01C05CDF4F199219921882C25477
:1010E000D0403AAF29AF493018F088E088AF01C04E
:1010F00048AF30E0A8EE2A2EA3E03A2E41E050E0BF
:10110000F1E4CF2ED12CCC0EDD1EE6E24E2E512C7A
:1011100070E4E72EF12CEC0EFD1E63E2662E712CBE
:10112000BE016E5B7F4F29E2822E912C64C0A32FFB
:10113000B0E0FD01EE0FFF1FEC0FFD1F318220829A
:10114000FD013896EE0FFF1FEC0FFD1F118210827C
:10115000F501EA0FFB1F80818830B8F4FA0102C064
:10116000EE0FFF1F8A95E2F7CF01FE01EA0FFB1F8A
:1011700080A3FB012081282B20835496AA0FBB1F3C
:10118000AC0FBD1F8D929C9235C08E30C8F490E09C
:101190000897FA0102C0EE0FFF1F8A95E2F7CF0110
:1011A000FE01EA0FFB1F80A3F7012081282B20837B
:1011B0005496AA0FBB1FAC0FBD1F6D927C921AC034
:1011C0008431C0F490E00E97FA0102C0EE0FFF1FC9
:1011D0008A95E2F7CF01FE01EA0FFB1F80A3F6011B
:1011E0002081282B20835496AA0FBB1FAC0FBD1F54
:1011F0004D925C923F5F88AD381708F498CF083065
:1012000078F481E090E002C0880F991F0A95E2F718
:101210008BAF8BE290E09DAF8CAF8AE290E029C06B
:101220000E3098F4202F30E02850304081E090E0DC
:1012300002C0880F991F2A95E2F78BAF85E290E0F4
:101240009DAF8CAF84E290E014C00431A8F4202F4D
:1012500030E02E50304081E090E002C0880F991FAE
:101260002A95E2F78BAF88E290E09DAF8CAF87E2E2
:1012700090E09FAF8EAF04C01FAE1EAE1DAE1CAE81
:10128000DF91CF910F91FF90EF90DF90CF90BF90C3
:10129000AF909F908F907F906F905F904F903F9016
:1012A0002F900895A0E0B0E0E8E5F9E00C94210C5F
:1012B0008C015B01DC01D9966D917C91DA9780E01D
:1012C00090E029E130E040E050E00E949F0B2AE0EE
:1012D00030E040E050E00E94DE0B4901005C1F4F0F
:1012E000E801A991FE01B1918F01C0800254104024
:1012F0008091B00083608093B00082E08093B10061
:1013000090E009C0E92FF0E0EE0FFF1FEA0DFB1D92
:10131000118210829F5FE80188AD981798F384B11D
:10132000005C1F4FF8013191832B84B987B1EF0125
:1013300029918E01822B87B98AB19881025410407D
:10134000892B8AB985B1832B85B988B1822B88B95D
:101350008BB1892B8BB982E48A95F1F7E801EEAD68
:10136000FFAD309751F080819BAD892B8083ECAD30
:10137000FDAD80819BAD892B808384B1005C1F4FC4
:10138000F80131913095832384B987B1EF01299118
:101390008E012095822387B98AB19881025410402A
:1013A000909589238AB985B1382335B988B1282326
:1013B00028B98BB198239BB9D090B20060E070E05F
:1013C0003BC0F090B200FD186F0D711DE3B0EA163E
:1013D00009F076C056B15B1709F072C089B18C155F
:1013E00009F06EC026C0A42FB0E0ED01CC0FDD1FC8
:1013F000CA0DDB1D88819981892BB1F4FD0174969A
:10140000EE0FFF1FE00FF11F0190F081E02D208112
:1014100030E0A00FB11F90968C9190E028233923E3
:10142000232B11F4798368834F5FF80180AD48174F
:10143000D0F2DF0CAE2DB52F6815790510F2D8016A
:10144000DE96ED91FC91DF97309781F08081DB96FD
:101450009C91DB97892B8083DC96ED91FC91DD9745
:101460009081DB968C91809589238083FF2422C014
:10147000CF2DD0E0CC0FDD1FCA0DDB1D6881798137
:101480006115710531F4F80181AD92AD99838883BE
:1014900010C080E090E02AE030E040E050E00E94A0
:1014A0009F0B29E130E040E050E00E94DE0B3983E1
:1014B0002883F394D801D8968C91F816C8F205C009
:1014C000E3B056B1C9B040E0B0CFCDB7DEB7ECE085
:1014D0000C943D0CDC01DE96ED91FC91DF9730978A
:1014E00081F08081DB969C91DB97892B8083DC9651
:1014F000ED91FC91DD979081DB968C91809589230D
:1015000080830895A0E1B0E0E8E8FAE00C94270CAD
:101510007C018E010F5F1F4FB8010E945209B80174
:10152000F70140E050E019C0DB012D913C9180892A
:1015300091898217930710F4318B208BDB012D9159
:101540003C91808191812817390710F431832083E1
:101550004F5F5F4F6E5F7F4F3296D701D8968C9169
:1015600090E04817590704F36096E6E00C94430CAA
:10157000A0E0B0E0EEEBFAE00C94230C5C01162F37
:10158000072F0E945209212F302FC9016C01E5015C
:10159000EE24FF2432C02881398108891989021B71
:1015A000130B09F1F6016081718180E090E040E069
:1015B00050E0621B730B840B950B28EE33E040E088
:1015C00050E00E949F0B9801442737FD4095542F0F
:1015D0000E94000CC901F3E0293E3F0714F088EE99
:1015E00093E097FF02C080E090E0F6018193919331
:1015F0006F010894E11CF11C2296F50180AD90E08A
:10160000E816F90644F2CDB7DEB7EAE00C943F0CD9
:10161000A5E0B0E0EEE0FBE00C941B0C8C01F62E94
:10162000E72E4B830E94B80AD801D896BC91BA83A2
:101630002F2D3E2DC9019D838C831982662477242A
:10164000430100E010E0AA24BB2465012B2E3324C3
:10165000442455242EC0EC81FD81E080F180FB8183
:10166000FF2329F028EE33E02E193F09790139ECE8
:10167000E316F10414F081E08983B701882777FD30
:101680008095982FA60195010E949F0B660E771EEC
:10169000881E991E0E0D1F1D88EE93E0A0E0B0E09D
:1016A000A80EB91ECA1EDB1EAC81BD811296BD8379
:1016B000AC83C201B10128EE33E040E050E00E946B
:1016C0009F0BA616B706C806D90629F6B981BB2313
:1016D00029F5EA814E2F50E084EF91E09C01429F72
:1016E000C001439F900D529F900D1124845F914043
:1016F0002091E1013091E201281739071CF420E024
:1017000030E017C088EE93E0489F9001499F300D6C
:10171000589F300D1124285E33400BC0980140E0E3
:1017200050E0C401B3010E94DE0B2093E10130932D
:10173000E201C9012596E2E10C94370C0895629FFD
:10174000D001739FF001829FE00DF11D649FE00DB9
:10175000F11D929FF00D839FF00D749FF00D659F1A
:10176000F00D9927729FB00DE11DF91F639FB00D19
:10177000E11DF91FBD01CF0111240895991B79E0E6
:1017800004C0991F961708F0961B881F7A95C9F711
:1017900080950895AA1BBB1B51E107C0AA1FBB1F60
:1017A000A617B70710F0A61BB70B881F991F5A95ED
:1017B000A9F780959095BC01CD010895A1E21A2E5C
:1017C000AA1BBB1BFD010DC0AA1FBB1FEE1FFF1FE5
:1017D000A217B307E407F50720F0A21BB30BE40B35
:1017E000F50B661F771F881F991F1A9469F760957C
:1017F0007095809590959B01AC01BD01CF01089536
:1018000097FB092E05260ED057FD04D0D7DF0AD04E
:10181000001C38F450954095309521953F4F4F4F1F
:101820005F4F0895F6F790958095709561957F4F7D
:101830008F4F9F4F08952F923F924F925F926F92DA
:101840007F928F929F92AF92BF92CF92DF92EF9250
:10185000FF920F931F93CF93DF93CDB7DEB7CA1BD1
:10186000DB0B0FB6F894DEBF0FBECDBF09942A88FC
:10187000398848885F846E847D848C849B84AA84A4
:10188000B984C884DF80EE80FD800C811B81AA8131
:10189000B981CE0FD11D0FB6F894DEBF0FBECDBFFC
:1018A000ED010895EE0FFF1F0590F491E02D0994CE
:0418B000F894FFCFDA
:1018B4006D560050726573732042004C31362063BC
:1018C4006465677265673400476F21000100020098
:1018D40003000400050001000200030004000500E9
:1018E400202E2C2D2B6F4F30402301202020202030
:0818F4002020200E0F1011123C
:00000001FF
