:100000000C9440000C945D000C945D000C945D0019
:100010000C945D000C945D000C945D000C945D00EC
:100020000C945D000C945D000C945D000C945D00DC
:100030000C945D000C942B040C945D000C945D00FA
:100040000C945D000C945D000C945D000C945D00BC
:100050000C945D000C945D000C945D000C945D00AC
:100060000C945D000C945D00840187018A018D0170
:1000700090019301960199019C019F01A2017E01CB
:1000800011241FBECFEFD4E0DEBFCDBF11E0A0E052
:10009000B1E0EAE5FCE002C005900D92AC31B10799
:1000A000D9F711E0ACE1B1E001C01D92A832B1076F
:1000B000E1F70E945F000C942B060C94000080E096
:1000C00091E00E94440587E091E00E94280480E0CE
:1000D0000E94510581E00E945E0584E690E00E9446
:1000E0006F0581E00E94510580E00E945E0584E674
:1000F00090E00E946F05EBCF10926F00229883E290
:100100008093800089E1809381001092820080E2D8
:100110009EE4909389008093880010928B00109247
:100120008A00089580911C01882329F481E080933E
:100130001C010E947C000895A0E0B0E0E2EAF0E03B
:100140000C94F6058C015B01C42E0E949200109263
:10015000110117FD03C0DD24D39403C01F779AE07B
:10016000D92E80918100E82EFF2448EFE422FF245D
:100170002D2D332780E991E0AC01249FC001259FFC
:10018000900D349F900D112480179107A8F4E80179
:100190000151174210F0C0E1D7E29E0144275527D4
:1001A00060E07DE281E391E00E94B105890181E098
:1001B00090E0E82AF92A20C088E2D89E802D1124F8
:1001C000C82FDD27C017D10708F4E8019E01442796
:1001D00055279AE0D91629F460E478E78DE791E095
:1001E00004C060EA75E286E290E00E94B1058901F0
:1001F00042E050E0E42AF52A5AE0D51639F4CE015F
:1002000005966AE070E00E949D05EB0183E0C83E20
:10021000D80711F4B5010FC0BE01882799279501B1
:10022000442755270E94720528EE33E040E050E055
:100230000E94D305B901CC2011F4229806C0229A5D
:100240009FE09C1510F48FE0C82E10926F00E09292
:1002500081001093890000938800209188003091DC
:10026000890080E190E08C19910902C036952795AC
:100270008A95E2F730938B0020938A0070932401D3
:100280006093230186B38FEF86BB81E080936F007C
:100290007894EAE0CDB7DEB70C941206CF93DF93E3
:1002A000EB018F3F11F0442329F440E0BE0188EEBA
:1002B00093E069C0813110F420E005C0282F20515F
:1002C000203608F02FE5822F6CE00E949105382F30
:1002D000682F7727E22FFF27CB01880F991F860F02
:1002E000971F880F991F880F991FE81BF90BEC3097
:1002F000F10538F4EC5CFF4F0C9425068AE093E09E
:1003000023C080E090E020C08CE991E01DC085EB27
:1003100091E01AC08FEC91E017C08AEE91E014C012
:1003200087E092E011C086E292E00EC087E492E09E
:100330000BC089E692E008C08EE892E005C085EB2C
:1003400092E002C08EED92E0373070F402C0880F68
:10035000991F6A95E2F7323020F005966AE070E066
:100360000BC0805090480BC026E0880F991F2A953B
:10037000E1F7029665E070E00E949D05CB014031F7
:1003800008F04FE0BE010E949C00DF91CF910895DC
:1003900040912201E0911D01F0911E01442311F0D2
:1003A000949101C09081892F81548A3108F4905E24
:1003B000903229F0F0931E01E0931D010BC09F01C4
:1003C0002F5F3F4FF9012130310541F730931E0176
:1003D00020931D01892F992787FD90950895CF932C
:1003E000DF930E94C801282FC0E0D0E01DC0CE01DD
:1003F00033E0880F991F3A95E1F7CC0FDD1FC80F46
:10040000D91F822F992787FD9095C80FD91FE09794
:1004100080911D0190911E01019690931E01809381
:100420001D010E94C801282F822F80538A30F8F2C4
:10043000CE01DF91CF910895A0E0B0E0E2E2F2E0DA
:100440000C94F40590901201B0902001BB2021F093
:10045000609121016623A1F4A0902101C0901901AF
:10046000D0901A010091170110911801E09013012A
:10047000F0901401C0911501D0911601892C17C07C
:10048000772740E08FEF0E944E0110922101CEC1EC
:1004900014E0812EBB24BFE0CB2ED12C04EF11E061
:1004A000A4E0EA2EF12CC0EDD7E0F4E09F2E0E94EC
:1004B000C801282F80911D0190911E0101969093F3
:1004C0001E0180931D01263609F4B2C02736D4F4EC
:1004D000223609F44CC0233674F42E3361F12F33E5
:1004E00034F42132A9F22C3309F00AC126C0213696
:1004F00009F006C124C0243609F46AC025360CF080
:100500007FC04EC02F3609F4DAC0203754F42C36A1
:1005100009F4BEC02D3609F4BFC0273609F0F0C07B
:100520009FC0243709F4D0C0263709F4E5C022372C
:1005300009F0E6C000C18394BACF8A94B8CFA092E4
:100540002101B0922001D0921A01C092190110939A
:10055000180100931701F0921401E0921301D09357
:100560001601C09315019092120129E017C0A092C4
:100570002101B0922001D0921A01C092190110936A
:10058000180100931701F0921401E0921301D09327
:100590001601C0931501909212012BE0EE24E4C0E5
:1005A000A0922101B0922001D0921A01C0921901AB
:1005B0001093180100931701F0921401E0921301B7
:1005C000D0931601C09315019092120120E0E6CF5E
:1005D000A0922101B0922001D0921A01C09219017B
:1005E0001093180100931701F0921401E092130187
:1005F000D0931601C09315019092120122E0CECF44
:10060000A0922101B0922001D0921A01C09219014A
:100610001093180100931701F0921401E092130156
:10062000D0931601C09315019092120124E0B6CF29
:10063000A0922101B0922001D0921A01C09219011A
:100640001093180100931701F0921401E092130126
:10065000D0931601C09315019092120125E09ECF10
:10066000A0922101B0922001D0921A01C0921901EA
:100670001093180100931701F0921401E0921301F6
:10068000D0931601C09315019092120127E086CFF6
:100690000E94EF017C012AC00E94C8018C3621F023
:1006A000AA24BB24B39401C0BB2480911D01909166
:1006B0001E01019690931E0180931D01F8CE0E94A9
:1006C000EF01882E982EF3CE0E94EF01BC0180EC42
:1006D0009DE50E949D05CB01E3E0880F991FEA95F7
:1006E000E1F7EB01CC0FDD1FC80FD91FCE01B70119
:1006F0000E949D058B01DBCE0E94EF016C01D7CEDD
:10070000A0922101B0922001D0921A01C092190149
:100710001093180100931701F0921401E092130155
:10072000D0931601C09315019092120110921E01F0
:1007300010921D017BC0A0922101B0922001D092A5
:100740001A01C09219011093180100931701F09239
:100750001401E0921301D0931601C09315019092F9
:10076000120120E0EE24E3948CE0889EC001112465
:10077000F22EF80E0AC080911D0190911E01019683
:1007800090931E0180931D01F3940E94C8018B3247
:1007900091F3833281F30CC080911D0190911E0171
:1007A000019690931E0180931D01FA940E94C80146
:1007B0008D3291F3C0911701D09118018153883087
:1007C00058F400911501109116010E94EF01BC012F
:1007D000C8010E949D05EB018E010BC080911D0197
:1007E00090911E01019690931E0180931D01C00FF0
:1007F000D11F169507950E94C8018E3279F380911A
:100800002001882339F0CE019695879580932101A8
:10081000C81BD1094091190150911A01EE2011F025
:10082000FF24FA94BE018F2D0E944E01ECE0CDB75B
:10083000DEB70C94100610926F0090931E01809307
:100840001D0110922201109221010E941C020895A4
:100850000E941B0408951F920F920FB60F9211244D
:100860002F933F934F935F936F937F938F939F93B8
:10087000AF93BF93EF93FF93809123019091240155
:1008800001979093240180932301809123019091FB
:1008900024018F5F9F4F11F580918100887F8160D7
:1008A0008093810080E29EE4909389008093880089
:1008B00010928B0010928A00229881E0809311019F
:1008C00010926F0080911D0190911E01892B31F0D3
:1008D00080911F01882311F40E941C02FF91EF9167
:1008E000BF91AF919F918F917F916F915F914F9148
:1008F0003F912F910F900FBE0F901F9018953AB116
:1009000057985A98289A5C9A86E0982F9A95F1F70A
:1009100099B15C98282F2A95F1F75C9A8A95F1F79E
:100920005C9897FDF0CF3AB9089565B19927AC016D
:1009300041705070440F551F9C012670307053E079
:10094000220F331F5A95E1F7422B6D7C462B45B998
:100950002BB18870907034E0880F991F3A95E1F7B9
:100960002F77282B2BB95C9A86E0982F9A95F1F770
:100970005C988A95F1F70895CF92DF92EF92FF92FB
:100980000F931F93082F162F0E942D050E947F049E
:10099000C4B0D5B0EAB0FBB05A9828988BB1110F0B
:1009A000110F812B8BB984B1826384B9579A802F40
:1009B00082958F700E949504802F8F700E949504FD
:1009C000FBB8EAB8D5B8C4B81F910F91FF90EF906B
:1009D000DF90CF90089561E00E94BC04089560E02C
:1009E0000E94BC0408950F931F938AB184618AB951
:1009F000209A80E593ECFC013197F1F70197F1F72C
:100A000080E30E94EF0488EA91E60197F1F780E322
:100A10000E94EF0408E813E1C8010197F1F780E3B1
:100A20000E94EF04C8010197F1F780E20E94EF04F1
:100A3000C8010197F1F788E20E94EF0488E00E9464
:100A4000EF0481E00E94EF0486E00E94EF048CE056
:100A50000E94EF041F910F91089580912701882330
:100A600029F481E0809327010E94F3040895CF9335
:100A7000DF93EC0103C021960E94EB048881882358
:100A8000D1F7DF91CF9108950E9437050895519ACB
:100A9000882311F0599A0895599808950E9447059E
:100AA00008950E944E050895579A882311F05F9A81
:100AB00008955F9808950E94540508950E945B056B
:100AC0000895AC0120E030E006C088E893E101978A
:100AD000F1F72F5F3F4F24173507B9F708950E94AC
:100AE00061050895629FD001739FF001829FE00D20
:100AF000F11D649FE00DF11D929FF00D839FF00D9D
:100B0000749FF00D659FF00D9927729FB00DE11D48
:100B1000F91F639FB00DE11DF91FBD01CF01112425
:100B20000895991B79E004C0991F961708F0961B49
:100B3000881F7A95C9F780950895AA1BBB1B51E1C0
:100B400007C0AA1FBB1FA617B70710F0A61BB70B3D
:100B5000881F991F5A95A9F780959095BC01CD01E2
:100B60000895A1E21A2EAA1BBB1BFD010DC0AA1FEE
:100B7000BB1FEE1FFF1FA217B307E407F50720F006
:100B8000A21BB30BE40BF50B661F771F881F991F81
:100B90001A9469F760957095809590959B01AC01CA
:100BA000BD01CF01089597FB092E05260ED057FDF4
:100BB00004D0D7DF0AD0001C38F45095409530950A
:100BC00021953F4F4F4F5F4F0895F6F790958095D1
:100BD000709561957F4F8F4F9F4F08952F923F9251
:100BE0004F925F926F927F928F929F92AF92BF923D
:100BF000CF92DF92EF92FF920F931F93CF93DF93E9
:100C0000CDB7DEB7CA1BDB0B0FB6F894DEBF0FBE45
:100C1000CDBF09942A88398848885F846E847D8492
:100C20008C849B84AA84B984C884DF80EE80FD8094
:100C30000C811B81AA81B981CE0FD11D0FB6F8940A
:100C4000DEBF0FBECDBFED010895EE0FFF1F059073
:0A0C5000F491E02D0994F894FFCF11
:100C5A0048656C6C6F21004C3136206365673E63D2
:0C0C6A000001040400D007F4010F00009A
:00000001FF
