:100000000C9454000C947E000C947E000C947E00A2
:100010000C947E000C947E000C947E000C947E0068
:100020000C947E000C947E000C947E000C947E0058
:100030000C947E000C94C2050C947E000C947E00FF
:100040000C947E000C947E000C947E000C947E0038
:100050000C947E000C947E000C947E000C947E0028
:100060000C947E000C947E000C947E000C947E0018
:100070000C947E000C947E000C947E000C947E0008
:100080000C947E000C947E000C947E0004030A0302
:100090000D0310031303160319031C031F0322038C
:1000A00025032803D307D70B11241FBECFEFD0E1C0
:1000B000DEBFCDBF13E0A0E0B1E0ECE4F9E100E089
:1000C0000BBF02C007900D92A230B107D9F713E021
:1000D000A2E0B3E001C01D92AD39B107E1F710E035
:1000E000C8EAD0E004C02297FE010E94A00CC43AE6
:1000F000D107C9F70E949F000C94A40C0C94000037
:100100000F931F93CF93DF938C01C0E0D0E0F801F1
:10011000EC0FFD1F8081918165E670E00E94030C69
:10012000FB01E651FD4F80810E9411072296CA30E3
:10013000D10569F7DF91CF911F910F910895AF928B
:10014000BF92CF92DF92EF92FF920F931F93DF93B4
:10015000CF93CDB7DEB72A970FB6F894DEBF0FBEA8
:10016000CDBF80ED97E00E9426081FC00E94EF07D8
:100170007C010E94FE060027F7FC0095102FC801A5
:10018000B7010E94AB0780E091E00E94220761E086
:1001900070E080E090E00E94D00783E091E00E9450
:1001A000220782E390E00E94290880E10E94F7057F
:1001B0008823E1F280E10E943C0684EF91E00E94F6
:1001C00029080CEE1FEF0832110528F068ED7FEFCB
:1001D00088E290E004C068E270E088ED9FEF0E9442
:1001E00000020E94FE0661E070E080E090E00E9464
:1001F000D00783E091E00E9422070E94F90784E182
:1002000090E00E9429080F5F1F4F0C331105D9F6AB
:1002100060E070E080E090E00E9400026E010894CF
:10022000C11CD11C21C0D601E0EEF2E08AE00190B1
:100230000D928150E1F7C6010E94F2077C010E94F5
:10024000FE0600E010E0C801B7010E94AB0761E0C4
:1002500070E080E090E00E94D007C6010E9480001C
:1002600082E390E00E94290880E10E94F70588233C
:10027000D1F280E10E943C060E94FE068BE091E0F4
:100280000E94220784EF91E00E9429088FE091E00C
:100290000E94BF05EE24FF246E010894C11CD11CEE
:1002A0005FEFA52EB12CD601E6EDF2E08AE00190D9
:1002B0000D928150E1F7C6010E94F2078C01005DAA
:1002C0001740C8018E199F099C01220F331F220F6E
:1002D000331F280F391FC80166E070E00E94170C19
:1002E000260F371FC90181509F4FB501621B730B49
:1002F0008F3F910521F01CF08FEF90E004C097FF35
:1003000002C080E090E06F3F710521F01CF06FEFBC
:1003100070E004C077FF02C060E070E00E9400025D
:100320007801C1CF809102038823F1F481E08093AA
:10033000020383EF8093B0008091B00084BD82E01F
:100340008093B1008091B10085BD1092B40080917E
:10035000B4008093B3008091B30088BD88B587BD99
:100360008AB188668AB9239A0895CF93DF93EC0106
:100370000E949201D7FD02C020E004C0D095C19533
:10038000DF4F21E0CE01CF3FD10519F014F08FEF00
:1003900090E0222319F018BC87BD02C088BD17BCAD
:1003A000DF91CF910895CF93DF93EC010E949201EA
:1003B000D7FD02C020E004C0D095C195DF4F21E0F9
:1003C000CE01CF3FD10519F014F08FEF90E022233A
:1003D00029F01092B4008093B30004C08093B4005D
:1003E0001092B300DF91CF9108950F931F938B016B
:1003F0000E94B501C8010E94D3011F910F91089579
:100400000E94F5010895809103038823F1F421E00F
:1004100020930303229883E28093800089E18093F4
:1004200081001092820080E29EE490938900809384
:10043000880010928B0010928A0010928500109212
:1004400084008FEF86BB20936F000895A0E0B0E09A
:10045000ECE2F2E00C946F0C8C015B01C42E0E9464
:1004600003021092F40217FD03C0DD24D39403C0ED
:100470001F779AE0D92E80918100E82EFF2448EF63
:10048000E422FF242D2D30E080E991E0AC01249F8F
:10049000C001259F900D349F900D11248017910766
:1004A000B0F4E80157E20131150710F0C0E1D7E2DE
:1004B0009E0140E050E060E07DE281E391E00E9437
:1004C0002A0C890181E090E0E82AF92A20C088E21C
:1004D000D89E802D1124C82FD0E0C017D10708F472
:1004E000E8019E0140E050E09AE0D91629F460E46A
:1004F00078E78DE791E004C060EA75E286E290E07B
:100500000E942A0C890142E050E0E42AF52A5AE0D0
:10051000D51639F4CE0105966AE070E00E94030C0E
:10052000EB0183E0C83ED80711F4B5010FC0BE014E
:1005300080E090E0950140E050E00E94D80B28EE6A
:1005400033E040E050E00E944C0CB901CC2011F4A3
:10055000229806C0229A9FE09C1510F48FE0C82EC6
:1005600010926F00E0928100109389000093880040
:10057000809188009091890020E130E02C193109A8
:1005800002C0969587952A95E2F790938B00809309
:100590008A007093100360930F0381E080936F00D3
:1005A0007894CDB7DEB7EAE00C948B0CCF93DF9351
:1005B000EB018F3F11F0442329F440E0BE0188EEA7
:1005C00093E067C0813110F420E005C0282F20514E
:1005D000203608F02FE5822F6CE00E94F70B382FB1
:1005E000682F70E084EF9FEF689FF001699FF00D26
:1005F000789FF00D1124E20FF11DEC30F10538F475
:10060000EA5BFF4F0C949E0C8CE991E023C080E0E4
:1006100090E020C085EB91E01DC08FEC91E01AC006
:100620008AEE91E017C087E092E014C086E292E083
:1006300011C087E492E00EC089E692E00BC08EE81C
:1006400092E008C085EB92E005C08EED92E002C01A
:100650008AE093E0373071F002C0880F991F6A95E5
:10066000E2F7323020F005966AE070E00BC080506F
:1006700090480BC026E0880F991F2A95E1F7029653
:1006800065E070E00E94030CCB01403108F04FE0C0
:10069000BE010E942602DF91CF91089540910B0385
:1006A00050910C03E0910703F091080360E070E0C3
:1006B00012C0CB01B3E0880F991FBA95E1F7660F1E
:1006C000771F860F971F622F772767FD70956053FE
:1006D0007040680F791F9E2F3F2F2191822F8053EA
:1006E0008A3038F39093070330930803CA010E94BD
:1006F000030CCB010895EF92FF920F931F93CF93BA
:10070000DF93F090040310910503112321F0609111
:100710000603662361F400910603209109033091DA
:100720000A03C0910D03D0910E03EF2C08C040E0E6
:1007300070E084E10E94D60210920603F2C1E091BB
:100740000703F09108039081892F81548A3108F4BE
:10075000905E3196963609F4A3C09736D4F492365B
:1007600009F44EC0933674F49E33F1F19F3334F4A0
:10077000903249F39C3309F05DC13CC0913609F0D9
:1007800059C16BC1943609F463C095360CF074C03E
:100790004BC09F3611F1903754F49C3609F4A8C031
:1007A0009D3609F4ADC0973609F044C18DC0943729
:1007B00069F0963721F0923709F03CC1D4C0F0932C
:1007C0000803E0930703C0E0D0E028C1F0930803DA
:1007D000E093070360E070E0EDC0F0930803E0935E
:1007E000070340E050E0B1C0F0930803E093070333
:1007F000E394A5CFF0930803E0930703EA949FCF17
:10080000009306031093050330930A032093090312
:10081000F0920403D0930E03C0930D03F0930803EA
:10082000E09307032BE02CC100930603109305030C
:1008300030930A0320930903F0920403D0930E032C
:10084000C0930D03F0930803E093070320E018C161
:10085000009306031093050330930A0320930903C2
:10086000F0920403D0930E03C0930D03F09308039A
:10087000E093070322E004C10093060310930503ED
:1008800030930A0320930903F0920403D0930E03DC
:10089000C0930D03F0930803E093070324E0F0C036
:1008A000009306031093050330930A032093090372
:1008B000F0920403D0930E03C0930D03F09308034A
:1008C000E093070325E0DCC00093060310930503C3
:1008D00030930A0320930903F0920403D0930E038C
:1008E000C0930D03F0930803E093070327E0C8C00B
:1008F000F0930803E09307030E944E039C011FCF6F
:10090000F0930803E093070380818C3629F08C3440
:1009100019F000E011E001C010E03196F0930803F7
:10092000E09307030CCFCA01A3E0880F991FAA9593
:10093000E1F7440F551F840F951F462F552747FD9C
:10094000509540535040480F591F9E2F7F2F619163
:10095000862F80538A3038F39093070370930803EF
:10096000F42EE42EECCE009306031093050330938F
:100970000A0320930903F0920403D0930E03C0935B
:100980000D03F0930803E093070320E011E079C022
:10099000CB0133E0880F991F3A95E1F7660F771F77
:1009A000860F971F622F772767FD70956053704001
:1009B000680F791F9E2F3F2F2191822F80538A30FD
:1009C00038F3909307033093080380EC9DE50E9471
:1009D000030CCB019B01A3E0220F331FAA95E1F783
:1009E000880F991F280F391F30930C0320930B0396
:1009F0003695279536952795A2CECE0173E0880FC0
:100A0000991F7A95E1F7CC0FDD1F8C0F9D1FC42F26
:100A1000DD27C7FDD095E097C80FD91F9E2F5F2F08
:100A20004191842F80538A3040F390930703509371
:100A3000080385CE009306031093050330930A0341
:100A400020930903F0920403D0930E03C0930D0387
:100A5000109208031092070364C0009306031093DA
:100A6000050330930A0320930903F0920403D09303
:100A70000E03C0930D03F0930803E093070329E0EE
:100A800010E08CE0E89EC0011124022F080FE091D5
:100A90000703F091080302C00F5F319680818B320B
:100AA000D9F38332C9F301C001509E2F2F2F8191BA
:100AB0008D32D1F3909307032093080360910903CB
:100AC00070910A038153883018F40E944E03BC01D0
:100AD0009B0136952795E0910703F091080304C028
:100AE000620F731F369527959E2F4F2F81918E325F
:100AF000B9F390930703409308038091050388237B
:100B000039F0CB019695879580930603681B710990
:100B1000112311F040E002C040910D03802F0E948C
:100B2000D602CDB7DEB7E6E00C948F0C0F931F937F
:100B30000FE610E0F801108224E02093040320ED7A
:100B400037E030930C0320930B0324EF31E0309314
:100B50000A03209309032FE030E030930E03209323
:100B60000D031092050390930803809307030E94DE
:100B70007B0381E0F80180831F910F9108950E940B
:100B8000960508951F920F920FB60F9211248F931E
:100B90009F9380910F0390911003019790931003FE
:100BA00080930F030196E1F480918100887F81603A
:100BB0008093810080E29EE4909389008093880076
:100BC00010928B0010928A00229881E08093F402A8
:100BD0008091070390910803892B11F00E947B03F9
:100BE0009F918F910F900FBE0F901F901895282FF7
:100BF00080911103882361F481E08093110384B113
:100C00008D7C84B985B1826385B986E08A95F1F7D8
:100C100083B140E030E090E080959095282339231F
:100C2000232B09F041E0842F0895682F8091110350
:100C3000882361F481E08093110384B18D7C84B9B1
:100C400085B1826385B986E08A95F1F7262F30E079
:100C500040E553EC83B190E082239323892BD1F3B9
:100C6000CA010197F1F783B190E082239323892B86
:100C700089F383B1862308950E94150608953AB139
:100C800057985A98289A26E05C9A822F8A95F1F70D
:100C900089B15C98922F9A95F1F75C9A922F9A9568
:100CA000F1F75C9887FDF0CF3AB9089565B190E00F
:100CB000AC0141705070440F551F9C01267030707C
:100CC00053E0220F331F5A95E1F7422B6D7C462BE0
:100CD00045B92BB18870907034E0880F991F3A9510
:100CE000E1F72F77282B2BB95C9A86E0982F9A95FD
:100CF000F1F75C988A95F1F70895CF92DF92EF9221
:100D0000FF920F931F93082F162F0E94EF060E9449
:100D10003F06C4B0D5B0EAB0FBB05A9828988BB162
:100D2000110F110F812B8BB984B1826384B9579A4B
:100D3000802F82958F700E945606802F8F700E94A0
:100D40005606FBB8EAB8D5B8C4B81F910F91FF900A
:100D5000EF90DF90CF9008950F931F938AB1846135
:100D60008AB9209A80E593ECFC013197F1F701975D
:100D7000F1F760E080E30E947D0688EA91E6019742
:100D8000F1F760E080E30E947D0608E813E1C80106
:100D90000197F1F760E080E30E947D06C8010197AA
:100DA000F1F760E080E20E947D06C8010197F1F74B
:100DB00060E088E20E947D0660E088E00E947D0697
:100DC00060E081E00E947D0660E086E00E947D0692
:100DD00060E08CE00E947D061F910F910895809144
:100DE0001403882329F481E0809314030E94AC0645
:100DF000089560E081E00E947D0608950E94F90652
:100E0000E5EFF2E080E2819392E0ED3FF907D9F758
:100E10001092130310921203089561E00E947D0660
:100E200008950E940D070895CF93DF93EC0104C04D
:100E3000219661E00E947D0688818823C9F7DF91B1
:100E4000CF9108950E94140708954F925F926F9278
:100E50007F928F929F92AF92BF92CF92DF92EF924A
:100E6000FF920F93DF93CF93CDB7DEB72A970FB6DC
:100E7000F894DEBF0FBECDBF4B015C010AE02E012E
:100E80000894411C511CC501B4012AE030E040E047
:100E900050E00E942A0C69017A0101503201600E73
:100EA000711CC701B6012AE030E040E050E00E942A
:100EB000D80B861A970AA80AB90A882D805DF30113
:100EC0008083C114D104E104F10461F046015701AB
:100ED000DACFF701E00FF11D61E080810E947D060D
:100EE0000F5F04C07E010894E11CF11C0A3088F3F6
:100EF0002A960FB6F894DEBF0FBECDBFCF91DF911B
:100F00000F91FF90EF90DF90CF90BF90AF909F90A8
:100F10008F907F906F905F904F900895EF92FF9227
:100F20000F931F937B018C0197FF0CC010950095C8
:100F3000F094E094E11CF11C011D111D61E08DE2B3
:100F40000E947D06C801B7010E9425071F910F91DD
:100F5000FF90EF9008950E948E070895A2E0B0E000
:100F6000E4EBF7E00C94770C282F80E8898380EC81
:100F70008A8380E090E0662311F081E090E0FE013A
:100F80003196E80FF91F922F283008F097E0808102
:100F900060E0890F0E947D062296E2E00C94930C9B
:100FA0000E94AE07089585E193E00E948F0808959E
:100FB0006AE070E086E00E943708A0E0B0E0BC0183
:100FC000CD012CE43DE140E050E00E94D80B2FEF32
:100FD00033E040E050E00E944C0CC90108950E94AB
:100FE000D807089540E0BC0185E193E00E94410BE1
:100FF000089585E193E00E94BB0A08950F93DF9363
:10100000CF9300D000D00F92CDB7DEB79C01DE01A8
:101010001196EDEFF2E045E001900D924150E1F7BD
:1010200003E145E0BE016F5F7F4F85E193E00E94E1
:10103000900885E193E00E94A30A0F900F900F9013
:101040000F900F90CF91DF910F9108950E94FE07AE
:10105000089520E030E048E853E105C0FA013197F7
:10106000F1F72F5F3F4F28173907C0F30895EF922C
:10107000FF920F931F9397E890937A0090917C00D2
:10108000907F90937C0090917C008F70892B80934F
:101090007C0080917A00806480937A00FB01EE24CA
:1010A000FF24870180917A00806480937A00809188
:1010B0007A0086FDFCCF80917C0085FF2BC080915B
:1010C000790090E0A0E0B0E0E80EF91E0A1F1B1FB7
:1010D000319741F7CB01969587956034710538F4C7
:1010E0008E0D9F1D70E00E94030C9B010DC0A0E0BF
:1010F000B0E0E80EF91E0A1F1B1F9B0140E050E004
:10110000C801B7010E942A0CC9011F910F91FF90DD
:10111000EF9008958091780090917900D3CF089551
:101120002F923F924F925F926F927F928F929F92F7
:10113000AF92BF92CF92DF92EF92FF920F93CF9335
:10114000DF93EC015B01C05CDF4F199219921882AA
:10115000C254D0403AAF29AF493018F088E088AF88
:1011600001C048AF30E0A8EE2A2EA3E03A2E41E0BD
:1011700050E0F1E4CF2ED12CCC0EDD1EE6E24E2E57
:10118000512C70E4E72EF12CEC0EFD1E63E2662E6E
:10119000712CBE016E5B7F4F29E2822E912C64C0C0
:1011A000A32FB0E0FD01EE0FFF1FEC0FFD1F3182FA
:1011B0002082FD013896EE0FFF1FEC0FFD1F1182FC
:1011C0001082F501EA0FFB1F80818830B8F4FA0124
:1011D00002C0EE0FFF1F8A95E2F7CF01FE01EA0F72
:1011E000FB1F80A3FB012081282B20835496AA0F8C
:1011F000BB1FAC0FBD1F8D929C9235C08E30C8F4C2
:1012000090E00897FA0102C0EE0FFF1F8A95E2F7FF
:10121000CF01FE01EA0FFB1F80A3F7012081282BDD
:1012200020835496AA0FBB1FAC0FBD1F6D927C92FA
:101230001AC08431C0F490E00E97FA0102C0EE0F9C
:10124000FF1F8A95E2F7CF01FE01EA0FFB1F80A383
:10125000F6012081282B20835496AA0FBB1FAC0FC8
:10126000BD1F4D925C923F5F88AD381708F498CF50
:10127000083078F481E090E002C0880F991F0A9549
:10128000E2F78BAF8BE290E09DAF8CAF8AE290E00B
:1012900029C00E3098F4202F30E02850304081E0F3
:1012A00090E002C0880F991F2A95E2F78BAF85E284
:1012B00090E09DAF8CAF84E290E014C00431A8F4BC
:1012C000202F30E02E50304081E090E002C0880FA7
:1012D000991F2A95E2F78BAF88E290E09DAF8CAF23
:1012E00087E290E09FAF8EAF04C01FAE1EAE1DAE72
:1012F0001CAEDF91CF910F91FF90EF90DF90CF90D8
:10130000BF90AF909F908F907F906F905F904F9025
:101310003F902F900895A0E0B0E0E1E9F9E00C944F
:101320006D0C8C015B01DC01D9966D917C91DA9793
:1013300080E090E029E130E040E050E00E94D80BEE
:101340002AE030E040E050E00E942A0C4901005CB5
:101350001F4FE801A991FE01B1918F01C080025495
:1013600010408091B00083608093B00082E0809351
:10137000B10090E009C0E92FF0E0EE0FFF1FEA0D89
:10138000FB1D118210829F5FE80188AD981798F3CA
:1013900084B1005C1F4FF8013191832B84B987B170
:1013A000EF0129918E01822B87B98AB1988102546D
:1013B0001040892B8AB985B1832B85B988B1822BDE
:1013C00088B98BB1892B8BB982E48A95F1F7E80152
:1013D000EEADFFAD309751F080819BAD892B8083BE
:1013E000ECADFDAD80819BAD892B808384B1005C29
:1013F0001F4FF80131913095832384B987B1EF01F4
:1014000029918E012095822387B98AB1988102544F
:101410001040909589238AB985B1382335B988B1B0
:10142000282328B98BB198239BB9D090B20060E0F3
:1014300070E03BC0F090B200FD186F0D711DE3B07D
:10144000EA1609F076C056B15B1709F072C089B18F
:101450008C1509F06EC026C0A42FB0E0ED01CC0FB2
:10146000DD1FCA0DDB1D88819981892BB1F4FD0137
:101470007496EE0FFF1FE00FF11F0190F081E02D39
:10148000208130E0A00FB11F90968C9190E028232E
:101490003923232B11F4798368834F5FF80180ADE2
:1014A0004817D0F2DF0CAE2DB52F6815790510F274
:1014B000D801DE96ED91FC91DF97309781F0808125
:1014C000DB969C91DB97892B8083DC96ED91FC91D8
:1014D000DD979081DB968C91809589238083FF2412
:1014E00022C0CF2DD0E0CC0FDD1FCA0DDB1D6881DF
:1014F00079816115710531F4F80181AD92AD99835F
:10150000888310C080E090E02AE030E040E050E0C6
:101510000E94D80B29E130E040E050E00E942A0C04
:1015200039832883F394D801D8968C91F816C8F2A1
:1015300005C0E3B056B1C9B040E0B0CFCDB7DEB71B
:10154000ECE00C94890CDC01DE96ED91FC91DF97C8
:10155000309781F08081DB969C91DB97892B80838B
:10156000DC96ED91FC91DD979081DB968C918095D6
:10157000892380830895A0E1B0E0E1ECFAE00C94C7
:10158000730C7C018E010F5F1F4FB8010E948B0905
:10159000B801F70140E050E019C0DB012D913C910A
:1015A000808991898217930710F4318B208BDB019E
:1015B0002D913C91808191812817390710F4318356
:1015C00020834F5F5F4F6E5F7F4F3296D701D89673
:1015D0008C9190E04817590704F36096E6E00C946C
:1015E0008F0CA0E0B0E0E7EFFAE00C946F0C5C0128
:1015F000162F072F0E948B09212F302FC9016C0154
:10160000E501EE24FF2432C0288139810889198937
:10161000021B130B09F1F6016081718180E090E0FB
:1016200040E050E0621B730B840B950B28EE33E017
:1016300040E050E00E94D80B9801442737FD4095C8
:10164000542F0E944C0CC901F3E0293E3F0714F0CF
:1016500088EE93E097FF02C080E090E0F60181936E
:1016600091936F010894E11CF11C2296F50180AD65
:1016700090E0E816F90644F2CDB7DEB7EAE00C9444
:101680008B0CA5E0B0E0E7E4FBE00C94670C8C0168
:10169000F62EE72E4B830E94F10AD801D896BC9112
:1016A000BA832F2D3E2DC9019D838C831982662418
:1016B0007724430100E010E0AA24BB2465012B2E0F
:1016C0003324442455242EC0EC81FD81E080F18038
:1016D000FB81FF2329F028EE33E02E193F09790121
:1016E00039ECE316F10414F081E08983B70188270F
:1016F00077FD8095982FA60195010E94D80B660E64
:10170000771E881E991E0E0D1F1D88EE93E0A0E027
:10171000B0E0A80EB91ECA1EDB1EAC81BD811296B8
:10172000BD83AC83C201B10128EE33E040E050E05C
:101730000E94D80BA616B706C806D90629F6B981A5
:10174000BB2329F5EA814E2F50E084EF91E09C0104
:10175000429FC001439F900D529F900D1124845FC2
:10176000914020919B0330919C03281739071CF46A
:1017700020E030E017C088EE93E0489F9001499F39
:10178000300D589F300D1124285E33400BC0980156
:1017900040E050E0C401B3010E942A0C20939B0357
:1017A00030939C03C9012596E2E10C94830C0895C3
:1017B000629FD001739FF001829FE00DF11D649F35
:1017C000E00DF11D929FF00D839FF00D749FF00DC1
:1017D000659FF00D9927729FB00DE11DF91F639F62
:1017E000B00DE11DF91FBD01CF0111240895991B12
:1017F00079E004C0991F961708F0961B881F7A9508
:10180000C9F780950895AA1BBB1B51E107C0AA1F09
:10181000BB1FA617B70710F0A61BB70B881F991F91
:101820005A95A9F780959095BC01CD01089597FB35
:10183000092E07260AD077FD04D0E5DF06D0002068
:101840001AF4709561957F4F0895F6F790958195FC
:101850009F4F0895A1E21A2EAA1BBB1BFD010DC0CC
:10186000AA1FBB1FEE1FFF1FA217B307E407F50750
:1018700020F0A21BB30BE40BF50B661F771F881F2C
:10188000991F1A9469F760957095809590959B01C2
:10189000AC01BD01CF01089597FB092E05260ED09E
:1018A00057FD04D0D7DF0AD0001C38F4509540957E
:1018B000309521953F4F4F4F5F4F0895F6F7909524
:1018C0008095709561957F4F8F4F9F4F08952F9210
:1018D0003F924F925F926F927F928F929F92AF92C0
:1018E000BF92CF92DF92EF92FF920F931F93CF930D
:1018F000DF93CDB7DEB7CA1BDB0B0FB6F894DEBFA4
:101900000FBECDBF09942A88398848885F846E84C9
:101910007D848C849B84AA84B984C884DF80EE8013
:10192000FD800C811B81AA81B981CE0FD11D0FB61C
:10193000F894DEBF0FBECDBFED010895EE0FFF1F7F
:0C1940000590F491E02D0994F894FFCF7D
:10194C006D56005072657373204200476F2100542E
:10195C0031323020563135204C3136616761666149
:10196C006561206461632B61646165612066613C23
:10197C0061613C6261632361206461632361646122
:10198C00656120664F35206463643C622D643C6164
:10199C00643C6720643C662B643C67643C61643C3B
:1019AC00622D20643C64643C65643C662B643C673B
:1019BC0020643C662B643C67643C6164204F35209A
:1019CC004C38204D53203C622D643C622D64204DDC
:1019DC004C20652D3C67652D3C67204D5320633CA6
:1019EC0061633C61204D4C20643C66643C66204F36
:1019FC0034204D5320622D67622D67204D4C203EC4
:101A0C006323653E6323654D532061666166204DFB
:101A1C004C20676323676323204D53206664666400
:101A2C00204D4C20653C622D653C622D4C3136209E
:101A3C004F35207261676166616561206461632363
:101A4C0061646165612066613C61613C6261632334
:101A5C006120646163236164616561206661656115
:101A6C0064616361203C622D6163616467622D6710
:101A7C00206567646763673C622D673C61673C6205
:101A8C002D6763663C616620646663663C622D6606
:101A9C003C6166203C67663C61663C622D653C6738
:101AAC0065206323653C622D653C61653C67652060
:101ABC003C66653C67653C61643C66644F342065FC
:101ACC003E65653E65663E64663E6420622D3E63FF
:101ADC0023622D3E6323613E64663E6420653E6551
:101AEC00653E65663E64663E6420653E643E6323E7
:101AFC003E64623E643E6323623E632361676165BC
:101B0C0067666520664F3564632364666463233CB3
:101B1C00622063233400010002000300040005006E
:101B2C0001000200030004000500202E2C2D2B6F59
:101B3C004F3040230120202020202020200E0F1089
:021B4C00111274
:00000001FF
